:400000000010002011000000610B0000610B000008B500F0A7FD0000F8B572B60122574B00211A7080225648D20002F0B3FD8022002454480021D20002F0ACFD201C524A95
:40004000FF25A75820323E1C111C4300AE433D4001334019D318420001328A18934206D0591E09781D7889190D700233F6E70434202CE4D1454A464B80211A60454A464B47
:4000800009061A609923454A1B041360444A02261160444A44491360444A3C201160A021434A09051160434A43491360C022434B92041A600122424B30271A60414A424D56
:4000C0001378334313700B788343283803430B701621137804300B43137099223B4B92031F603B4B1A60C0223A4B52001A603A4B4F3AFF3A1A609622384B52021A60384B76
:40010000384A1E60384B1F60384B1A6080222B68D20213432B6000F0C9FF2A68344B354913402B60344A354B09201A601022344B1C60344B1F60344B1A608222334B1206B2
:400140001A60334B334A2B60334B1A60334A344B1A60344A344B1A60344A354B1A6000F045FF092000F06CFF0022324B01201A60314B1E6000F03EFDF8BDC0461C700F4075
:4001800000300F4000400F40E42E00000000EE080000014000EE33000C00014000500F4004500F4010500F400400990020500F4024500F4030500F4001700F4038500F4004
:4001C0002000004000700F4000010B40000004400800044008010440000204400802044018020440806D03000003044008030440FFFFFBFF751200000600008004010B40EA
:400200000C0202401C0202402002024008010B4001000400030000800000024007000080400002401F000080800002407FBB0080040002400C020B4000031A4010B5064C55
:400240002378002B07D1054B002B02D0044800E000BF0123237010BDE800002000000000A42B000008B5084B002B03D00748084900E000BF07480368002B00D108BD064B34
:40028000002BFBD09847F9E700000000A42B0000EC000020C80000200000000008B500F0A9F900F0FBF90020011C00F099F9094800F08AF900210B2000F092F9064800F00B
:4002C00083F900F027F9FA210448490000F084FB08BDC046A82B0000390200209D02000008B501F0BDF802480A2100F075FB08BDF502000008B5012001F0BCF8002818D034
:40030000002001F0CBF80D4B188000F0D1FB0121002000F065F90A4800F056F90121092000F05EF9074800F04FF9FA210648890001E00A21054800F04FFB08BD1602002081
:40034000B42B00001A020020E1020000F502000073B5061C0D1C141C00F0F2FC301C291C221C002300F044FD019000F0D3FC8307FBD5019876BDF7B5051C01AF0E1C1C1C8F
:400380003A7000F0DDFC281C391C0122022300F02FFD00F0BFFC8307FBD500F0D1FCE208281C311C012300F091FDC4B200F0B2FCC307FBD500F0C4FC201CFEBD08B50120BB
:4003C00000F0AEFF62B600F031FC9620400000F04DFE00F027F800F08BF800F09BF801F031F801F0D7F800F037FBFA210548490000F0F2FA96210448890000F0EDFA00F019
:40040000BDFAFCE79D020000E102000007B56B460222187059703C206946FFF799FF019001980EBD08B5AE210020FFF7EFFFD5210020FFF7EBFF80210020FFF7E7FFA82144
:400440000020FFF7E3FF3F210020FFF7DFFFD3210020FFF7DBFF0020011CFFF7D7FF40210020FFF7D3FF8D210020FFF7CFFF14210020FFF7CBFF20210020FFF7C7FF002016
:40048000011CFFF7C3FFA1210020FFF7BFFFC8210020FFF7BBFFDA210020FFF7B7FF12210020FFF7B3FF81210020FFF7AFFF4F210020FFF7ABFFD9210020FFF7A7FFF121F8
:4004C0000020FFF7A3FFDB210020FFF79FFF40210020FFF79BFFA4210020FFF797FFA6210020FFF793FF0020AF21FFF78FFF08BD002300220549CA5480210133C9008B424E
:40050000F7D1034B1A705A707047C046440200200401002013B500236A460193941C23802288084B9A420CD82388074A9BB2D15C4020C9B2FFF76AFF0190238801339BB25D
:40054000EDE713BDFF03000044020020062130B51A4B5C781A78E4014A43A2185A60021C203AD2B2602A04D95F22BF2801D96038C2B2052000214243114882185C68555CCE
:40058000601C58600F48013105550529F6D15A68511C5960002181541A780132D2B21A701A78142A08D919705A780132D2B25A705A78072A00D9597030BDC0460401002034
:4005C000BE2B00004402002038B5051C0024285D002804D00134FFF7B9FFE4B2F7E738BD142804D8072902D8014B1870597070470401002073B5274E01AC3068211C0022D1
:400600001023FFF7B8FE237862781B02224D9B18DB102B803068211C07221023FFF7ABFE237862781B021343EB813068211C01220823FFF7A0FE237830682B71211C032285
:400640001023FFF798FE237862781B0213436B813068211C05221023FFF78DFE237862781B021343EB803068211C04221023FFF782FE237862781B0213432B813068211CD7
:4006800002221023FFF777FE237862781B021343AB8173BDCC00002024020020F8B5994C208802F067F90022974B01F0C9FE02F09DF90021051C01F00DFB002802D00023DA
:4006C000A37005E001239D40A370DD402C336375281C8E4901F0EAFA061C281C002E41D001F00CFB0026C7B2894927746674A674281C01F0D5FB01F001FB85B2281C0A2175
:4007000001F0C6F9281CE174642101F0C1F988B20A2101F037F92075381C00F001F9A57800F0FAF8037865196B75207D00F0F8F82C23A5786519AB7500F0EEF80378EB75D7
:40074000E07C00F0EDF8A57800F0E6F80335037865196B75A378E418802363763D3BA376E676CEE0694901F0B5FA00285DD0281C684901F09BFA002857D0281C01F0BEFAC0
:40078000C7B2381C0A2101F083F9381C21740A2101F0F8F8C7B25E496774A674281C01F07FFB01F0ABFA85B2281C0A2101F070F9281CE174642101F06BF988B20A2101F0BC
:4007C000E1F82075381C00F0ABF8A57800F0A4F8827863195A75207C00F0A2F8A57800F09BF82C228378013565196B75A378E318DA75207D00F094F8A57800F08DF80335CB
:40080000837865196B75E07C00F08AF8A57800F083F80435837865196B75A378E4188023A3763D3BE37626776BE0281C394901F051FA002865D0281C01F060FAC6B2301C39
:400840000A2101F025F96427301C217438400A2101F028F9391C6074301C01F093F8C6B2A674281C01F04AFA7843C5B2281C0A2101F00EF9281CE174391C01F009F9C8B22D
:400880000A2101F07FF82075301C00F049F8A57800F042F8837865196B75607C00F040F8A57800F039F80135837865196B75207C00F036F8A57800F02FF82C2283780235B4
:4008C00065196B75A378E3181A76207D00F028F8A57800F021F80435837865196B75E07C00F01EF8A57800F017F80535837865196B75A378E4188023E3763D3B2377002336
:400900006377F8BD240200200000B03F000010410000C8420000C642004870470C01002010B5632809D9031C643BDBB20121632B1CD93830C3B2491818E02024211C002368
:400940000C4A1170092804D901330A38DBB2C0B2F8E7002B01D03033DCB20323137300233030C0B254709070D37010BD3031181C3024E4E70C0100207047000038B572B62F
:40098000094B0A4C18680022A04201D162B60AE0111C013295005D5989005D500A2AF7D19C6262B6804738BD1C0100207909000030B572B60023064A99008D58054CA54291
:4009C00003D001330B2BF6D100E0885062B630BD1C0100207909000070B572B600230F4CDA00A218161CD26A2C36251C824201D171600DE00133152BF1D10023DA00AA18BE
:400A0000141CD66A064A2C34964203D12060616062B602E00133152BF0D170BD1C0100207909000010B50024094A0A4BA10001348B50101C191C0B2CF6D10023DA00821856
:400A4000141CD162002201332263152BF6D110BD1C0100207909000008B5FFF7E3FF024800F0B6FD08BDC046A90A000070B500250B4CEB00E418231CE26A0A4E2C33B242E7
:400A80000AD05A68012A03D05A68013A5A6003E0E06AFFF78DFFE6620135152DE8D170BD1C0100207909000008B5FFF7DFFF08BD10B52A4C00200023E15E00F0FFFC80B2A1
:400AC0006421608000F05EFFC0B2FFF729FFFFF723FF8378642123712C236088637100F0D7FF88B20A2100F04DFFC0B2FFF718FFFFF712FF83780A21A371608800F0C8FFB7
:400B0000C8B2FFF70DFFFFF707FF8378E3715623237200F0FFFB231C03281DD82022627200F026FF02060C125022A2720D3A08E04322A2720532E272043A0AE04622A272E9
:400B4000033ADA72053204E05322A272073AE27204321A7300225A7310BDC04616020020FEE7000070B51049104B01394A1C15D000221E685C689D68A018AA4203D0B058C3
:400B8000A0500432F8E7021CDC68151AA54202D0002520C2F9E710330139E7E701F0D4FFFFF70CFCFEE7C046010000002830000008B500239A000B49032B01D80A498958A5
:400BC0000A4801338150302BF4D1FFF725FA0022074B01211A608022D20513680B43136008BDC046610B00000000000000000020C0000020054A1368002803D080210906F8
:400C00000B4301E05B005B081360704780031A408021054A08B5136809060B4313600B2000F00EFA08BDC0460000074010B5054C2378002B03D100F007F801232370FFF747
:400C4000E7FF10BDF00100200C2110B500241C4A0B2013680B4313601A4B1B4A1C601B4B1A601B4B1B4A13601B4A14601B4A14601B4A13601B4B1C6000F0ECF90B200321D9
:400C800000F0C0F918490B2000F0B0F91422174BFF321C60164B1C60164B1C60164B1A60164B043A1C60164BFF3A1C60154B1A70154B1C80154B1C60154B1C6010BDC046EA
:400CC00070000740000007407708008060000740070100800003074004030740100307400002074004020740F5150000C80E0740880E0740480F0740080F0740C80F074022
:400D0000880F07404406002054060020640600204C06002010B50B2000F09CF9064B1C88064BA4B21B789B0601D504231C430B2000F086F9201C10BD5406002044060020CD
:400D400010B50B2000F086F90022044B0B201C88A4B21A8000F074F9201C10BD54060020F8B51E4B1F6800F025F90028FBD01C4D002000F027F91B4C2B681B4E23402B607C
:400D800033685B005B083360BB060FD5002000F019F9032000F080F9012000F013F900F01DF90028FBD0032000F076F9002000F009F9032000F070F9012080220B4B12069D
:400DC00018603368134333602B681C40E0231B031C432C6000F0F6F8F8BDC0466400074000000140FFFFF0FF0000074068000740F7B5061C0F1C019200930424002944D010
:400E0000244D2B78102B08D10B2000F023F9224B24191B68DB0738D408E02B780424602B33D108211D4A13888B43138028232B7000251B4B019A1D601A4B18491D601A4B39
:400E400076001A60194B01241F606B461A78184B184F1A70FF2302221E400B8893430B801549164B1960402315490B6015490B60009B23401C1EAC4204D0FFF771FF2C1C76
:400E80003E6002E0104B3E601A600B2000F0D8F8201CFEBD440600206400074054060020480600204C06002050060020680600205C0600204002074017030000000F07406F
:400EC000800F0740880F074068000740F7B5061C0F1C01920093042400294CD0284D2B78102B08D10B2000F0B5F8264B24191B68DB0740D408E02B780424602B3BD1082175
:400F0000214A13888B431380292300222B701F4B1F491A601F4A019B012013601E4B76001F606B461B780B70FF2317491E400B88064383430B80194B194919601368194A15
:400F4000072B01D8042306E08020174940000B6803430B60082301241360009B134D23401C1E04D0FFF7FCFE00242E6003E002220F4B2E601A600B2000F062F8201CFEBD4F
:400F8000440600206400074054060020640600205C0600206006002058060020000F074017030000C80F0740600007404002074068000740024B18688006C00F7047C04646
:400FC000040004401023044900010A689A43D2B2034013430B60704700000440024B1868C006C00F7047C046040004401F2800D901BE034B8000C318186819607047C046B1
:401000004000002038B5041C0D1E032D00D901BE1F2C00D901BE00F0A1FCA308074A9B009B180322144094400634A240A540196891432943196000F095FC38BD00E400E0D4
:401040001F2318401E3B8340181C014B1860704700E100E01F2318401E3B8340181C014B1860704780E100E001BE704710B5041C8022074B1202944205D9186800F064FCBD
:40108000044BE418F4E75868604300F05DFC10BDD00000200080FFFF08B5034B1B7A584300F052FC08BDC046D0000020F0B5051C87B000F053FCEB1E049003932D2B5CD8F4
:4010C000314B1B789D4204D8304B1C78304BE4B21EE0304B1B789D4204D82F4B1C782F4BE4B215E02E4B1B789D4204D82D4B1C782D4BE4B20CE02D4B1B789D4204D82C4B22
:401100001C782C4BE4B203E02B4B1C782B4BE4B21B78039ADBB20193294B2A4F9A5C059302922F2A04D92A2D02D919263E6008E03F233E681E40029BB34205D2214B029AB1
:401140001A60052000F000FC1C4B1F4AED182B780520DBB213601D4B019A1C601C4B1A60FFF79AFF029BB34208D9059B039A05209B5C3B6000F0E8FB00E001BE049800F0F3
:40118000F1FB07B0F0BDC046C0F1FF0FC1F1FF0FC2F1FF0FC3F1FF0FC4F1FF0FC5F1FF0FC6F1FF0FC7F1FF0FC8F1FF0FC9F1FF0FCAF1FF0FCBF1FF0FCCF1FF0FCDF1FF0F0C
:4011C000542F00002CFF0B4028FF0B401CFF0B4020FF0B4008B500F0C1FBC021034A090213680B43136000F0BDFB08BD00010B4010B5802400F0B2FB0749084B0A68E4011D
:401200001A4022430A600A6813408022120213430B6000F0A7FB10BD00010B40FF3FFFFF70B5051C00F09AFB0E4B041C1A68C0231B02134011D10C480C490540281C0E68BF
:401240000B4A3240104308600A68012B01D1FFF7C1FF201C00F086FB70BDFFF7C9FF0123E9E7C04600010B400404040010020B40FBFBFBFF042238B5224C2368134213D04B
:4012800021490B6813420CD0204B9D6908681540A8430860996991439961DB68002B00D098470420FFF7BCFF80232268DB001A4215D015490A681A420DD0144A95690868B7
:4012C0002B40984308609169114B0B4093611369002B00D098478020C000FFF7A1FF80232268DB021A420CD0074A12681A4204D0064B5B69002B00D098478020C002FFF7DB
:401300008FFF38BD10020B40E0000020F8010020FFFBFFFF014B1878C0B2704760000F400423044980000A689A43D2B2034013430B6070470001044010B50E200321FFF734
:4013400061FE0E201E49FFF751FE01221D4B1A601D4B1B68002B01DB1C4900E01C491D4A8020136801240B4313601B4A1B4B1C491A601C4A1C4B40021A6000231B4A1360FD
:401380001B4A0A601B490A601B490A6802430A6002211A4A1A4813601A4A13601A4A14601A4A116002681A490A4022430260194A1360194A1380194A194B1A6010BDC0466D
:4013C0000D15000020001A4080031A40400200534002105300001A408C00008004001A4010001A400000FF0718001A401C001A400200020014001A4000031A4028021A40CB
:4014000030001A4038021A4018021A40000F1A40FFFFFFDF80001A4070060020204E00006C06002008B5064B1A68002A07DB80211A6809060A431A600A20FFF72DFE08BDC0
:4014400000001A4010B5054C2378002B03D1FFF773FF01232370FFF7E5FF10BD140200208021034A490213680B4313607047C04604001A4010B5041C0020A3070AD001222A
:4014800005490B681340181E02D1A307F7D401E0101C0A6010BDC04610021A4008B5002804D00020FFF7E0FD002002E0024B186880B200B208BDC04680011A4038B5041CD2
:4014C0000D1C002802D00020FFF7CEFD0C4B6200D15AA400691A0B4D0B482A5909B24843D30F002902DD9B185B1002E09A18521053422959C01800F0D5FA00B238BDC04610
:40150000700600206C06002010270000014B1A681A60704710021A408022084B92041A600C22074B1A60074B0B3A1A60064A074B1A600022064B1A607047C04600010540C5
:401540002401054038010540E02E0000140105400801054038B50D1C041CAC4000F0FEF9024B1C6000F0FEF938BDC0460800054010B5012400F0F2F9054A13682343136064
:4015800000F0F0F9201C1821FFF7E4FF10BDC0460000054010B5054C2378002B03D1FFF7BBFF01232370FFF7E3FF10BD1502002010B5041C00F0D2F9C021044AA40113680A
:4015C0008B432343136000F0CDF910BD00E400E010B50124044B1C60044B18640320FFF7E7FF034B1C6010BD80E100E00000002000E100E0F8B5AD4B1B68002B00D09847C3
:40160000AB4B1B68DB0702D50022AA4B1A60AA4B1A78920601D4002123E0A84A00211068C00506D5C024A648A40001882143018001211268D20706D59020A14980000A88C4
:4016400002430A8001E00029E5D0012102201A789B4C0A40821A2088024392B2228000221A7018781022800600D4F6E0934C206810420CD09349924C0A600121187801401C
:401680000220411A2088014389B22180DAE0187800071BD502202568054209D0894A8849106088200A88800002430A8001210DE01878C00702D525221A7007E02420187077
:4016C00081480068002801D08048026004251A782A4200D19BE001201A78024243D008267B4A1468344223D07A4A7B4C156827687A4AEF1B0F2512682A40BA1AB24207D81D
:40170000002A06D17649774A0D682A400A60011C321C754D20682D68013A2818734D2D68EDB20570206801302060002AF1D117E012682A4214D0684A6B4E146836683419F9
:401740006A4E3668F6B226701468013414601468604A1268944202D2654A156000E0011C6448654A49E002222468144220D05549624C0A6062490D320E680D682168324045
:401780008A1AE90B0840101A2060842021685D4A800011604A490A88024380200A805A4A40021168014311601068584901402CE0574A1068C00622D5564A1468504A424DB1
:4017C00010680F2210404D4A08280DD016682868864209D21068504D20180078C0B22860106801301060E9E710682A68904202D14020364A10604948494A106007E01268FF
:40180000520604D53D4A11683E4A116001E000294AD03349334A086802400A60002241490A602A490A60404A127892070CD50122197823480A400A218A1A01880A4392B272
:40184000028060221A702FE0384B1A681823920600D4083B264A136026E01978114023D1334C20684000400820601A701C4B314A186802401A6018682F4A02401A60294B3D
:401880001C4A1960114B1960254B1A60234A1A4B1A602A4A2A4B1A602A4A0A4B1A6080222368120613432360F8BDC046F40100208C0E0740880E0740440600200C0F074020
:4018C00054060020000F074050060020880F0740CC0F074060060020640600200803074060000740FFFEFFFF580600204003074068000740ED0F0000C00F07404806002067
:40190000080207404C06002004020740FFFFFEFF8C0F07406806002040020740F3070000800F0740C80F07405C0600206400074000000740FF5FFFFFFFFCFFFFFF0F0000DE
:40194000400F0740170300000230800804D0C0460138FDD1C046C046C0467047EFF3108072B6704780F310887047C046C046C04602B4714649084900095C49008E4402BCE9
:401980007047C046002243088B4274D303098B425FD3030A8B4244D3030B8B4228D3030C8B420DD3FF22090212BA030C8B4202D31212090265D0030B8B4219D300E0090A94
:4019C000C30B8B4201D3CB03C01A5241830B8B4201D38B03C01A5241430B8B4201D34B03C01A5241030B8B4201D30B03C01A5241C30A8B4201D3CB02C01A5241830A8B423D
:401A000001D38B02C01A5241430A8B4201D34B02C01A5241030A8B4201D30B02C01A5241CDD2C3098B4201D3CB01C01A524183098B4201D38B01C01A524143098B4201D3B0
:401A40004B01C01A524103098B4201D30B01C01A5241C3088B4201D3CB00C01A524183088B4201D38B00C01A524143088B4201D34B00C01A5241411A00D2014652411046BE
:401A80007047FFE701B5002000F0FCF802BDC0460029F7D003B5FFF775FF0EBC4243891A1847C04603460B437FD4002243088B4274D303098B425FD3030A8B4244D3030B2C
:401AC0008B4228D3030C8B420DD3FF22090212BA030C8B4202D31212090265D0030B8B4219D300E0090AC30B8B4201D3CB03C01A5241830B8B4201D38B03C01A5241430B79
:401B00008B4201D34B03C01A5241030B8B4201D30B03C01A5241C30A8B4201D3CB02C01A5241830A8B4201D38B02C01A5241430A8B4201D34B02C01A5241030A8B4201D3F9
:401B40000B02C01A5241CDD2C3098B4201D3CB01C01A524183098B4201D38B01C01A524143098B4201D34B01C01A524103098B4201D30B01C01A5241C3088B4201D3CB007D
:401B8000C01A524183088B4201D38B00C01A524143088B4201D34B00C01A5241411A00D201465241104670475DE0CA0F00D04942031000D34042534000229C4603098B4293
:401BC0002DD3030A8B4212D3FC22890112BA030A8B420CD3890192118B4208D3890192118B4204D389013AD0921100E08909C3098B4201D3CB01C01A524183098B4201D3D7
:401C00008B01C01A524143098B4201D34B01C01A524103098B4201D30B01C01A5241C3088B4201D3CB00C01A524183088B4201D38B00C01A5241D9D243088B4201D34B0035
:401C4000C01A5241411A00D20146634652415B10104601D34042002B00D54942704763465B1000D3404201B5002000F00BF802BD0029F8D003B5FFF715FF0EBC4243891A58
:401C80001847C0467047C0468446081C6146FFE71FB500F0BFF8002801D40021C8421FBD10B500F043F84042013010BD10B500F0B1F8002801DB002010BD012010BDC04655
:401CC00010B500F0A7F8002801DD002010BD012010BDC04610B500F053F8002801DC002010BD012010BDC04610B500F049F8002801DA002010BD012010BDC0469E2110B565
:401D0000C905041CFFF7F0FF002803D1201C00F077FB10BD9E21201CC90500F0F3F900F06FFB80231B069C466044F2E7430270B542004C005D0AC30F4802120E460A240E2A
:401D4000C90FFF2A05D0FF2C08D00120A2420BD070BD0120002DFBD1FF2CF6D10120002EF6D10120A242F3D1B542F1D18B4205D0002AEDD1281C431E9841E9E70020E7E713
:401D8000F0B543024D024A0044005E0A240EC30F6D0A120EC90FFF2C0DD0FF2A31D0002C0DD177427741002A23D1002D21D10020002F0BD107E0002E28D1FF2A21D0002A1A
:401DC00005D08B4207D0584201231843F0BD002DF9D08B42F7D19442F5DC04DBAE42F2D80020AE42F2D25842434101205B421843ECE7002FE5D04842414101204942084314
:401E0000E4E7002D02D1002CCBD0DAE702204042DCE7C0464302F0B542004C005E0AC30F4802120E450A240EC90FFF2A0FD0FF2C1AD0002A10D177427741002C29D0002F80
:401E400017D0484241410120494208430BE00220002E08D1FF2C07D0002C0AD1002D08D1584201231843F0BD0220002DFBD1002AE1D08B42F4D1A242F2DC04DBAE42EFD8BF
:401E80000020AE42EFD25842434101205B421843E9E7002DD3D10020002FE4D1E0E7C046F0B55F4656464D464446F0B445024600C40F83B00F1C6D0A360EA34645D0FF2E5D
:401EC00025D080231B041D4300239A46ED007F3E01937B025B0A98467800FB0F000E994640D0FF2838D0802342461B041343DB00984600237F384A46019F30186240411C72
:401F00001F430F2F69D87D4EBF00F659B746002D45D108230193063B9A46DAE793465346022B2FD15B46012400251C40FF236D02DB056D0AE4071D432543281C03B03CBC96
:401F400090469946A246AB46F0BD002D2CD104230193033B9A46BCE743465A4253410322D31AC8E742460123002AC4D0404600F0CDFD4246431F9A4076235B42181A90465A
:401F80000023B8E7032B00D1ADE0012B00D08CE05B4654461C40E4B200230025C7E70C230193093B9A4694E7281C00F0AFFD7626431F9D4000237642361A01939A4688E71D
:401FC00080250024ED03FF23B1E74546CB469A46A5E7454693469A46A1E743462C041B0C9C46230C444626041C1C360C2F0C7443351C66467D4373437743EB18260C9E1970
:40200000B54203D980235B029C46674424043304240C1B199D016C1EA5419B0E360C2B43BD19AD011D432B0104D5012368081D400543081C031C7F33002B2CDD690704D087
:402040000F212940042900D00435290103D52C4B1D40031C8033FE2B17DD0124FF231440002564E78020C003054209D04346034206D1454605436D026D0A4C46FF2356E7EF
:4020800005436D026D0AFF2351E70124AD016D0ADBB214404BE77E235B421B1A1B2B07DD012400231440002541E7081C5A46C1E79E30291C8540D940681E85410D436B074A
:4020C00004D00F232B40042B00D004356B0104D5012401231440002529E70124AD016D0A1440002323E78023DB031D4301245B466D0223401C1C6D0AFF2318E7842F000059
:40210000FFFFFFF7F8B54A00430244004D02C00F240E061C9B09120EC90FAD09FF2A00D175E001277940884250D0A01A002800DC8FE0002A1ED1002D00D075E05A0704D080
:402140000F221A40042A00D0043380220120D2041A403040002A32D00134FF2C00D184E09B015B0AE4B25B02E4055B0A2343C0071843F8BDFF2CE1D08022D20415431B280D
:402180007ADD01255B1B5A015DD59B019F09381C00F0BCFC05388740844269DC001B1F243A1C431C201ADA408740131C7C1EA74100243B43C2E7131E45D100230020DB08B9
:4021C000FF2C28D05B025B0AE4B2CCE7A11A00295BDD002A2ED0FF2CB0D08022D20415431B2974DC2F1C2022CF40511A8D40691E8D413D435B195A0125D50134FF2C74D048
:4022000001217E4A194013405B080B4396E7002D00D088E785E7002B27D08022D20313435B025B0AFF249EE701380028AAD0FF2CA5D183E7002D00D180E701390029D9D052
:40224000FF2CCDD17AE75A0700D079E701203040B5E7002825D1621CD2B2012A55DD5F1B7A012DD5EF1A0E1C91E7FF2400237AE7624B241A3B4061E7291C2022C140101A50
:402280008540681E85410D437CE7002946D1621CD1B201292BDDFF2A26D0EB185B08141C4CE7002C15D0FF2A1AD08024E404404223431B284DDD0123EB1A141C0E1C62E72E
:4022C000002F00D063E700230020002477E7012590E7002B39D0C0430028EDD0FF2AE8D12B1CFF240E1C29E7FF24002367E7002C5AD1002B7FD0002D00D11FE75B195A0159
:40230000A1D53E4A0134134018E7002C15D1002B2FD1002D5ED02B1C0E1C0FE7002C21D1002B54D0C943002904D0FF2A4CD01B2958DD01235B19141C5DE7002B23D1002D8D
:402340004BD02B1C0E1CFF24F8E62B1C141C0E1CF4E61E1C2024C640201A8340581E83413343A9E7FF2A2FD08024E40449422343DDE7002D00D1E1E65A1B500100D41AE7CB
:40238000EB1A0E1CDAE6FF24002D00D1D6E68022DB08D203134204D0ED08154201D12B1C0E1CDB00FF24C9E6002B0DD0FF24002D00D1C3E68022DB08D2031342F1D0ED085B
:4023C0001542EED12B1CECE72B1CFF24B6E62B1C141CB3E6231C0020F1E6802300209B04FF24ECE61F1C2024CF40611A8B40591E8B413B439EE72B1CA0E6C046FFFFFFFB25
:402400004202510A4200C30F120E00207E2A0DDD9D2A0CDC802000040143952A0ADC9620821AD1400A1C58424240D0187047034A9818FBE7963A91400A1CF4E7FFFFFF7F9A
:40244000F0B55F4656464D464446F0B4051C061C080387B099464F00030BCC0F92469B467F0D019467D06C4B9F4236D080205B4640031843C0006B0F1843684B83469C4698
:4024800000239846EE00674400934B4649461D03C90F5B0052462D0B5B0D894600D16EE05D498B4264D080205C4940038C4600210543ED00500F0543D20063444846FF183A
:4024C0007B1C9A46009B604002900B430F2B00D9ACE053489B00C3589F465B461D4300D082E00823009300239B46023300269846CBE7029B01934346022B59D1012400253A
:402500000026019B1C40444B00212D030A0D12052D0B1543434A1B0515401D436D00E4076D082543301C291C07B03CBC90469946A246AB46F0BD2B434ED05B46002B00D1A4
:4025400085E1584600F0E2FA021C2823291C9B1A161C5846D940083EB0400B1CB54003439B462E1C0023304F0093BF1A98468CE7514629432ED10025002202219EE7514695
:40258000294323D0002D00D154E1281C00F0BEFA031C28215046C91A1A1CC8405146083A914095400A1C05431F480021C31A85E7032B00D1C2E1012B00D06DE14446019BAE
:4025C00000251C40E4B2002300269DE700250022012173E7032171E70423009300239B4601330026984650E70C230093093B98464BE7802500242D030026074B84E74B4608
:40260000AB46161C0193884675E7029BAB46161C019388466FE7C046FF07000001FCFFFFC42F0000FFFF0F800DFCFFFF330C3604360C9C46331C140C1204120C53439846FF
:40264000634653439946634663430193331C41466343090C4B445B18994505D9802040028146019949440191190C039141460904090C1B045B1804932B0C9846331C2D0488
:40268000290C4B43604600934346654658435E43009B4D431B0C9946AE194E448446B54203D980235B029946CC44350C2B1C0398634484460593009B36041B041B0CF31846
:4026C0009C446046039058460504060C280C84465043351C81466046654344434846000C8346724314195C44A24203D98022520293465D44220CAD184A461204120C240496
:402700004046A41862464A437143464360460096464670438046100C84468844E044414505D9802149028C46009961440091019803998446614499429B415B429946059869
:40274000434684461204120C1B049B1863449C46AB4683429B4140460A19CC44A2428941E344CC45B6415C46000C8046494276425B426418334398448C428941AB459B41C9
:4027800049425B4219430D1C009B4544EE187602E50D2E43B346049B56021E43731E9E415B46D20D324366021643DB010AD50123334076081E435B46DB071E435B465B08D7
:4027C0009B465746634BFB18002B5ADD720709D00F223240042A05D0321DB242B6417642B344161C5A46D20106D55A465A4B1A4080239346DB00FB18584A934234DD012421
:40280000029B00251C400026554B7DE680205B460003034208D0054206D105432D032D0B4C46161C4E4B6FE65D4605432D032D0B4B4B69E6504600F069F9031C2033272B8C
:4028400000DCA6E65546083885400022ACE6281C00F05CF9021C2032272A00DC75E6083885400026AB467DE65A46F608520716435A4601245502029A5B052D0B5B0D144040
:4028800042E6384DED1B382D0ADD0124029B00251C400026002337E6019B5746029391E71F2D25DC304B321C9C466744BE405B46BB40371CEA407E1EB74113433B431E1CCC
:4028C0005B46EB401D1C730709D00F233340042B05D0331DB342B6417642AD191E1C2B0220D50124029B00251C40002601230BE65A461E4BDB1BDA40131C202D1CD01C4A5C
:4029000094465A466744BA40171C3E43721E96411E4307230025334007D00F2300253340042BD6D16B076D022D0B0124F6081E43029B1C400023E7E50027E6E780255B4604
:4029400001242D031D43019B2D0323401C1C2D0B034BD9E5FF030000FFFFFFFEFE070000FF07000002FCFFFF1E040000E2FBFFFF3E04000038B5041E16D0C50F00D0444295
:40298000201C00F0C3F8174B1B1A0A2821DC021C211C153291400A1C0B21081AC4405B052403240B5B0D03E000250023002400220021101C24030A0D1205240B14430A4A74
:4029C0001B0514401C436400ED0764082C43211C38BD0B3884405B052403240B5B0D0022E6E7C0461E040000FFFF0F8070B50B034D00440F6D0D5B0A23436C1C6405C90FF5
:402A0000C200640D012C2ADD3B4C2C19FE2C1ADC002C35DD8001451EA841DB000343520F13435A0704D00F221A40042A00D004338022D2041A4027D00134FF2C03D09B01D3
:402A40005B0AE4B201E0FF2400235B02E4055B0A23435B00C9075B080B43181C70BD002D06D113430ED100245B025B0AE4B2ECE71A43E8D08020DB0080040343FF24D0E72A
:402A800017340CDA05230024DB08FF2CECD1002B2DD08022D20313435B025B0AD5E78024164824042343401B1F280DDC144CA4466544AB401C1C131CAB405D1EAB41C240A7
:402AC000234313430024ACE71E1C0E4C641BE640341C20280DD00C4884466544AB401D1C2A43531E9A41131C2343002499E70023ABE70025F4E7C04680FCFFFF9E03000002
:402B000082FCFFFF7E030000A2FCFFFF1C2101231B04984201D3000C10391B0A984201D3000A08391B09984201D30009043902A2105C40187047C04604030202010101010F
:402B400000000000000000000E4B70B500251E1C0D4CE41AA410A54204D0AB00F35898470135F8E700F04EFA084B00251E1C084CE41AA410A54204D0AB00F3589847013512
:402B8000F8E770BD10300000103000001030000018300000031C8218934202D019700133FAE77047000000004C4D39322054656D703A2000426174746572793A2000000003
:402BC00000000000005F00000007000700147F147F14242A7F2A124C2C10686436495522500005030000001C2241000041221C0014083E081408083E080800005030001021
:402C000010101010006060000020100804023E5149453E00427F400042615149462141454B311814127F1027454545393C4A49493001710905033649494936064949291E67
:402C4000003636000000563600000814224100141414141400412214080201510906324979413E7E1111117E7F494949363E414141227F4141221C7F494949417F090909CE
:402C8000013E4149497A7F0808087F00417F41002040413F017F081422417F404040407F020C027F7F0408107F3E4141413E7F090909063E4151215E7F09192946464949D5
:402CC000493101017F01013F4040403F1F2040201F3F4038403F631408146307087008076151494543007F41410002040810200041417F0004020102044040404040000110
:402D000002040020545454787F484444383844444420384444487F3854545418087E0901020C5252523E7F0804047800447D40002040443D007F1028440000417F40007C49
:402D4000041804787C0804047838444444387C14141408081414187C7C080404084854545420043F4440203C4040207C1C2040201C3C4030403C44281028440C5050503CC0
:402D80004464544C44000836410000007F000000413608000804081008FFFFFFFFFF06090906007C1211127C7F494949317F494949367F01010101603F213F607F49494941
:402DC0004177087F087722414949367F1008047F7E1009047E7F08142241403E01017F7F020C027F7F0808087F3E4141413E7F0101017F7F090909063E4141412201017F12
:402E00000101074848483F0E117F110E63140814633F20203F60070808087F7F407E407F3F203F207F017F4848307F4830007F007F484830224149493E7F083E413E4629EF
:402E400019097F20545454783C4A4A4A317C545428007C04040C00603C243C6038545454186C107C106C00445454287C2010087C7C2112097C7C10284400403804047C7CF2
:402E80000810087C7C1010107C38444444387C0404047C7C14141408384444440004047C04040C5050503C08147C140844281028443C20203C600C1010107C7C407C407C26
:402EC0003C203C207C047C5050207C5020007C007C50502028445454387C10384438485434147C0002300F4003310F4003330F4005400F400A410F4003420F400B430F40E6
:402F000002600F405B045F0158105A40D60CB010B640E021200824016F08C830DA80222080018620870888049001A004A708C810E08009040D01C20C5B0464808304888015
:402F4000B101B504D602D801E004EA04EE02020111010000030405060708090A0B0C0E0F101112131415161718191B1C1D1E1F2021222325262728292A2B2E2F30313233D7
:402F800034350000DA1F0000D21F0000D21F0000CA1F00001C1F00001C1F0000C01F0000CA1F00001C1F0000C01F00001C1F0000CA1F00001E1F00001E1F00001E1F0000B1
:402FC000642000002C2600000A2600000A260000FE250000F2240000F2240000F2250000FE250000F2240000F2250000F2240000FE250000F6240000F6240000F62400005E
:403000000C280000F8B5C046F8BC08BC9E46704765020000B10B0000F8B5C046F8BC08BC9E4670473D02000038300000C80000202000000090050000000000004B0000001E
:403040000000C05D80BB000030000000006CDC0204040400000000000000000000000000000000000000000000000000000000000000000000000000000000000000000072
:403080000000000000000000000000000000000000000000000000000000000000000000000000000000000000000000000000000000000000000000000000000000000010
:4030C00000000000000000000000000000000000000000000000000000000000000000000000000000000000000000000000000000000000000000000000000000000000D0
:40310000000000000000000000000000000000000000000000000000000000000000000000000000000000000000000000000000000000000000000000000000000000008F
:40314000000000000000000000000000000000000000000000000000000000000000000000000000000000000000000000000000000000000000000000000000000000004F
:0200000490303A
:0200000075E6A3
:0200000490402A
:200000000000000000000000000000000000000000000000000000000000000000000000E0
:0200000490501A
:0C000000000204C81193110104D7877995
:0200000490600A
:0100000001FE
:00000001FF